:020000040800F2
:1000000068060020A1010008C5030008FD020008E1
:10001000C10300085B020008A904000800000000FA
:10002000000000000000000000000000C9030008FC
:100030005F02000800000000C7030008CB030008AF
:10004000BB010008BB010008BB010008BB010008A0
:10005000BB010008BB010008BB01000861020008E9
:100060006F0200087D020008BB010008BB01000808
:10007000BB010008BB010008BB010008BB01000870
:10008000BB010008BB010008BB010008BB01000860
:10009000BB010008BB010008BB010008BB01000850
:1000A000BB010008BB010008BB010008BB01000840
:1000B000BB010008BB010008BB010008BB01000830
:1000C000BB010008BB010008BB010008BB01000820
:1000D000BB010008BB010008BB010008BB01000810
:1000E000BB010008BB010008BB01000800000000C4
:1000F0000000000000000000000000000000000000
:10010000BB01000800F002F800F03AF80AA090E8FD
:10011000000C82448344AAF10107DA4501D100F0C2
:100120002FF8AFF2090EBAE80F0013F0010F18BF55
:10013000FB1A43F001031847D0070000F007000046
:10014000103A24BF78C878C1FAD8520724BF30C803
:1001500030C144BF04680C607047000000230024D5
:1001600000250026103A28BF78C1FBD8520728BFC7
:1001700030C148BF0B6070471FB51FBD10B510BD23
:1001800000F031F81146FFF7F7FF00F0C9FA00F070
:100190004FF803B4FFF7F2FF03BC00F057F800007C
:1001A0000948804709480047FEE7FEE7FEE7FEE70B
:1001B000FEE7FEE7FEE7FEE7FEE7FEE70448054947
:1001C000054A064B70470000D503000805010008EA
:1001D00068000020680600206802002068020020F5
:1001E000704770477047754600F02CF8AE46050022
:1001F0006946534620F00700854618B020B5FFF742
:10020000DDFFBDE820404FF000064FF000074FF043
:1002100000084FF0000B21F00701AC46ACE8C00924
:10022000ACE8C009ACE8C009ACE8C0098D4670472D
:1002300010B50446AFF300802046BDE81040FFF73C
:10024000A8BF0000004870470400002001491820A2
:10025000ABBEFEE726000200704700BFFEE7704716
:1002600010B500F077F8022000F09AF910BD10B533
:1002700000F082F8042000F093F910BD10B500F0F2
:100280007BF8082000F08CF910BD10B54FF4C06069
:1002900000F0C4FA02221146072000F053FA0222AD
:1002A0001146082000F04EFA02221146092000F003
:1002B00049FA01220021022000F014F9002211461F
:1002C000042000F00FF902220021082000F00AF9B2
:1002D000022000F065F9042000F062F9082000F027
:1002E0005FF90121002000F069F90221002000F0EF
:1002F00065F90321002000F061F910BD00BFFEE7A1
:1003000010B501210B4800F0FBF980B90F2000F077
:10031000D9F80121074800F0F3F940B900BF0121E5
:10032000044800F0EDF90028F9D0012010BD0020AC
:10033000FCE700000008014010B540F2026000F048
:100340006DFA012303224821014800F083F910BD12
:100350000008014010B50121064800F0D9F908B99C
:10036000012000E00020044622460121014800F05F
:100370001FF910BD000C014010B50221064800F025
:10038000C7F908B9012000E00020044622460221F6
:10039000014800F00DF910BD000C014010B540F20D
:1003A000036000F03BFA03231A461021034800F0D3
:1003B00051F90321014800F0F9F810BD000C01408B
:1003C00000BFFEE770477047704710B500F06EF849
:1003D00010BD000008B53048006840F001002E490B
:1003E000086000BF2C48006800F002000028F9D027
:1003F00000BF2948406840F080002749486000203D
:10040000009002E00098401C009000985028F9D31A
:100410002148406840F090001F494860002000904B
:1004200002E00098401C009000985028F9D300BFCB
:100430001948406820F003001749486008460068E2
:1004400016490840144908600846406814490840A5
:100450001149486008460068104908400E49086084
:100460000846006820F480200860084640680D496E
:10047000084009494860084600680849084006499C
:1004800008604FF41F00886000F03AFA00214FF036
:10049000006000F0B7F908BD00100240FFFFF6FE53
:1004A0000C00FFE8FFFF00F700BFFEE7044800680C
:1004B00020B103480068401E0149086070470000F1
:1004C0000000002008E044F6206100BF0A1EA1F1F0
:1004D000010399B2FAD100BF011EA0F1010290B24E
:1004E000F1D1704710B52D4B1B6883432B4C236013
:1004F000231D1B688343241D2360231D1B68834326
:10050000241D2360231D1B688343241D236011B118
:1005100001290ED105E0214B1B6803431F4C2360CA
:1005200008E01E4B1B1D1B6803431C4C241D23604D
:1005300000E000BF00BF32B1012A11D0022A1CD056
:10054000032A27D127E0154B08331B680343134CBC
:1005500008342360231D1B688343241D23601BE094
:100560000E4B08331B6883430C4C08342360231D57
:100570001B680343241D23600EE0084B08331B68EF
:100580000343064C08342360231D1B680343241DCA
:10059000236001E000BF00BF00BF10BD00040140A8
:1005A0000149086070470000140401404161704730
:1005B0000AB1016100E041617047000010B50022FE
:1005C0008B071C0F0F2303FA04F204290EDA204BC9
:1005D0009B6893431E4CA36023469B688C07240FA3
:1005E00000FA04F423431A4CA3602FE008290EDA22
:1005F000174BDB689343164CE3602346DB688C079C
:10060000240F00FA04F42343114CE3601EE00C298C
:100610000EDA0F4B1B6993430D4C236123461B6974
:100620008C07240F00FA04F42343094C23610DE0E6
:10063000074B5B699343064C636123465B698C07F8
:10064000240F00FA04F42343014C636110BD000041
:1006500000000140F0B5044616460025002201F0D6
:100660000F0501F0100707B1354300201EE00127F8
:1006700087401F40C7B122684FEA800C0F2707FA56
:100680000CF7BA43870005FA07F73A43282904D143
:10069000012787401F40676105E0482903D10127F2
:1006A00087401F4027612260471CB8B20828DED36C
:1006B000082022E0012787401F40E7B16268A0F1CF
:1006C00008074FEA870C0F2707FA0CF7BA43A0F187
:1006D0000807BF0005FA07F73A43282904D1012784
:1006E00087401F40676105E0482903D10127874003
:1006F0001F4027616260471CB8B21028DAD3F0BDF2
:1007000002469068084008B1012070470020FCE7CD
:100710000246D068084008B1012070470020FCE77D
:10072000FFF73CFEFFF708FEFFF7AFFD08E04FF4D0
:100730009670FFF7C7FEFFF7E3FD08B1FFF70AFE6B
:10074000F5E700002DE9F04103460D46164600246A
:100750000027A0462448006800F4E060B0F5A06FD0
:1007600015D006DCB0F5407F18D0B0F5806F19D1F8
:1007700010E0B0F5C06F06D0B0F5E06F12D10027E1
:100780004FF0040815E001274FF0030811E002279D
:10079000B8460EE003274FF001080AE004274FF0A7
:1007A000000806E04FF4A06000F022F80227B846E7
:1007B00000BF00BFC7F1040005FA00F4C8F104014E
:1007C0000F20C8403040044324010848C45403F0BB
:1007D0001F01012088405911890001F1E021C1F871
:1007E0000001BDE8F08100000CED00E000E400E055
:1007F00002490143024A1160704700000000FA05F7
:100800000CED00E0034A0A400243034B1A60BFF3B9
:100810004F8F704780FFFF1F08ED00E0064A02EB94
:100820009011096800F01F0301229A401143024B06
:1008300003EB90121160704700100240002000216D
:100840002C4A126842F480322A4B1A6000BF401CC6
:10085000284A126802F4003119B94FF6FF7290422B
:10086000F5D1244A126802F400320AB900BFFEE74B
:10087000204A52681F4B5A601A4652685A601A46FC
:10088000526842F480625A601A46526822F440323A
:100890005A601A46526842F440325A601A46526808
:1008A000154B1A40134B5A601A465268134B1A43A1
:1008B000104B5A601A46126842F080721A6000BFEC
:1008C0000C4A126802F00072002AF9D0094A5268F4
:1008D00022F00302074B5A601A46526842F00202A5
:1008E0005A6000BF034A526802F00C02082AF9D18C
:1008F0007047000000100240FFFFC3F70000280807
:1009000010B5FFF79BFF10BD28090008000000206C
:1009100004000000400100082C0900080400002029
:0C092000640600005C01000800000000FC
:0400000508000105E9
:00000001FF
