:020000040800F2
:1000000068060020A10100085903000863020008E7
:10001000550300085B020008AD0400080000000062
:10002000000000000000000000000000890300083C
:100030005F02000800000000850300088D0300082F
:10004000BB010008BB010008BB010008BB010008A0
:10005000BB010008BB010008BB010008BB01000890
:10006000BB010008BB010008BB010008BB01000880
:10007000BB010008BB010008BB010008BB01000870
:10008000BB010008BB010008BB010008BB01000860
:10009000BB010008BB010008BB010008BB01000850
:1000A000BB010008BB010008BB010008BB01000840
:1000B000BB010008BB010008BB010008BB01000830
:1000C000BB010008BB010008BB010008BB01000820
:1000D000BB010008BB010008BB010008BB01000810
:1000E000BB010008BB010008BB01000800000000C4
:1000F0000000000000000000000000000000000000
:10010000BB01000800F002F800F03AF80AA090E8FD
:10011000000C82448344AAF10107DA4501D100F0C2
:100120002FF8AFF2090EBAE80F0013F0010F18BF55
:10013000FB1A43F001031847300600005006000088
:10014000103A24BF78C878C1FAD8520724BF30C803
:1001500030C144BF04680C607047000000230024D5
:1001600000250026103A28BF78C1FBD8520728BFC7
:1001700030C148BF0B6070471FB51FBD10B510BD23
:1001800000F031F81146FFF7F7FF00F024FA00F015
:100190004FF803B4FFF7F2FF03BC00F057F800007C
:1001A0000948804709480047FEE7FEE7FEE7FEE70B
:1001B000FEE7FEE7FEE7FEE7FEE7FEE70448054947
:1001C000054A064B7047000095030008050100082A
:1001D00068000020680600206802002068020020F5
:1001E000704770477047754600F02CF8AE46050022
:1001F0006946534620F00700854618B020B5FFF742
:10020000DDFFBDE820404FF000064FF000074FF043
:1002100000084FF0000B21F00701AC46ACE8C00924
:10022000ACE8C009ACE8C009ACE8C0098D4670472D
:1002300010B50446AFF300802046BDE81040FFF73C
:10024000A8BF00000048704708000020014918209E
:10025000ABBEFEE726000200704700BFFEE700BF0E
:10026000FEE700BFFEE7000010B5044634B1012CE4
:100270000AD0022C0ED0032C17D110E04FF40051FD
:100280000B4800F049F911E000220121094800F073
:1002900047F90BE00121074800F03EF906E04FF472
:1002A0000071044800F038F900E000BF00BF10BD45
:1002B00000100140000C014010B540F2036000F056
:1002C000B1F940F20323032210210C4800F02DF96C
:1002D00003210A4800F020F940F2046000F0A2F97E
:1002E0004FF4005303221021054800F01EF94FF48B
:1002F0000051034800F010F910BD0000000C01404F
:100300000010014010B5044634B1012C0AD0022C73
:100310000DD0032C16D10FE04FF400510B4800F024
:10032000FDF810E001210A4800F0F8F80BE0012187
:10033000074800F0F3F806E04FF40071044800F0BD
:10034000EDF800E000BF00BF10BD0000001001404C
:10035000000C014000BFFEE700BFFEE710B500281B
:1003600007DA0A07140E054A00F00F031B1FD454C6
:1003700003E00A07130E024A135410BD18ED00E003
:1003800000E400E000BFFEE700BFFEE710B500F0AC
:10039000A7F810BD1CB54148006840F001003F4976
:1003A000086000BF3D48006800F002000028F9D056
:1003B0003A48406800F00C00082838D100BF0020FF
:1003C000019002E00198401C019001985028F9D357
:1003D000324840680090009820F0F00000900098AB
:1003E00040F0800000902D49009848600020019066
:1003F00002E00198401C019001985028F9D3274849
:1004000040680090009820F0F0000090009840F0C4
:10041000900000902149009848600020019002E07F
:100420000198401C019001985028F9D300BF1B4847
:10043000406820F0030019494860642000F038F853
:100440001648006816490840144908600846406884
:10045000144908401149486008460068104908409E
:100460000E4908600846006820F4802008600846AD
:1004700040680D4908400949486008460068084935
:100480000840064908604FF41F00886000F040F9FA
:1004900000214FF0006000F0B9F81CBD00100240D0
:1004A000FFFFF6FE0C00FFE8FFFF00F700BFFEE7CE
:1004B00008B50021009102E00099491C009100EB71
:1004C0008001009AB2EB410FF6D308BD03490860E2
:1004D00000BF024909680029FBD1704700000020D5
:1004E0000448006820B103480068401E01490860C4
:1004F000704700000000002008E044F6206100BFC3
:100500000A1EA1F1010399B2FAD100BF011EA0F1A8
:10051000010290B2F1D170474161704701617047AB
:100520000AB1016100E041617047F0B5044616462A
:100530000025002201F00F0501F0100707B1354337
:1005400000201EE0012787401F40C7B122684FEA04
:10055000800C0F2707FA0CF7BA43870005FA07F754
:100560003A43282904D1012787401F40676105E0ED
:10057000482903D1012787401F4027612260471C7B
:10058000B8B20828DED3082022E0012787401F40A8
:10059000E7B16268A0F108074FEA870C0F2707FA56
:1005A0000CF7BA43A0F10807BF0005FA07F73A4372
:1005B000282904D1012787401F40676105E04829A9
:1005C00003D1012787401F4027616260471CB8B2F2
:1005D0001028DAD3F0BDFFF76FFE00F09DF813E0AE
:1005E0000220FFF78FFE0320FFF73EFE41F2883026
:1005F000FFF782FF0220FFF737FE0320FFF782FE9E
:1006000041F28830FFF762FFEAE70000034A0A4040
:100610000243034B1A60BFF34F8F704780FFFF1FE9
:1006200008ED00E0064A02EB9011096800F01F0394
:1006300001229A401143024B03EB90121160704764
:100640000010024008B5002000212E4A126842F432
:1006500080322C4B1A6000BF401C2A4A126802F4F8
:10066000003119B94FF6FF729042F5D1254A126850
:1006700002F400320AB900BFFEE7224A5268214B59
:100680005A601A4652685A601A46526842F48062AA
:100690005A601A46526822F440325A601A4652682A
:1006A00042F440325A601A465268174B1A40154BB2
:1006B0005A601A465268154B1A43124B5A601A4632
:1006C000126842F080721A6000BF0E4A126802F08F
:1006D0000072002AF9D00B4A52680092009A22F068
:1006E00003020092009A42F002020092054B009A27
:1006F0005A6000BF034A526802F00C02082AF9D17E
:1007000008BD000000100240FFFFC3F700002808EA
:1007100010B5FFF797FF10BD10B5124800684FF4F1
:100720007A71B0FBF1F4601EB0F1807F01D301203B
:100730000FE0601E4FF0E02148610F214FF0FF30C5
:10074000FFF70CFE00204FF0E021886107200861D0
:10075000002008B100BFFEE70021481EFFF7FEFDA4
:1007600010BD0000040000208807000800000020E1
:100770000800000040010008900700080800002061
:10078000600600005C0100080000000000F36F0636
:0400000508000105E9
:00000001FF
