:020000040800F2
:1000000010040020E1000008DF020008DD02000803
:1000100000000000000000000000000000000000E0
:10002000000000000000000000000000E3020008E3
:100030000000000000000000E1020008E5020008E6
:10004000F3000008F3000008F3000008F3000008C4
:10005000F3000008F3000008F3000008F3000008B4
:1000600000000000F3000008F3000008F30000089F
:10007000F3000008F3000008F3000008000000008F
:10008000F3000008F300000800000000F30000087F
:10009000F3000008F3000008F3000008F300000874
:1000A000F3000008F3000008F3000008F300000864
:1000B000F300000800000000000000000000000045
:1000C000F300000800000000F30000080348854624
:1000D00000F0ECF8004800474D080008100400202C
:1000E0000448804704480047FEE7FEE7FEE7FEE7D6
:1000F000FEE7FEE7E9020008CD000008024670B501
:100100004A40D30FDB0740002DD04A002AD0010E11
:10011000140E000212020919400A520A8418E5015D
:1001200004465443000A120A2E045043A4194219EB
:10013000200CC543AA18120C0125AD03521C5219FC
:1001400012047F39240400D0521C104301D4400013
:10015000491EC2B20C06C0092018401C4008802A63
:1001600002D003E0002070BD40084000002900DA02
:100170000020184370BD70B502464A40D50F4000BC
:100180004A00ED0740085208002814D0002A12D077
:10019000C40DD30D41020120C0055202490A520A82
:1001A000E41A091812187D34914201D3641C00E04E
:1001B0004900002C01DA002070BD0023914201D3D8
:1001C000891A0343400849000028F7D100290AD0C2
:1001D000914202D10121C90705E0914201D20121DA
:1001E00001E00121C943E005C018401900F01CF8E6
:1001F00070BD10B500229623114600F01DF810BD09
:10020000410040020122400AD205090E80187F29D0
:1002100001DA00207047962903DC9622511AC84063
:100220007047963988407047002904DA401C49001D
:1002300001D140084000704770B40024050C05D17E
:100240001024000402D1002921D01124050E01D16F
:1002500000020834050F01D10001241D850F01D1D2
:100260008000A41C002801DB4000641C002908D089
:1002700020252E1B0D46F540A14000D00121294329
:10028000084301061B1B000ADB1D02D5002070BCC1
:100290007047DB05181880180029F8DA401C49005F
:1002A000F5D170BC40084000704700001CB50948FB
:1002B00000900948019005460126009C05E0E3688E
:1002C00007CC33430C3C98471034AC42F7D3FFF7CC
:1002D00001FF00006C0900088C090008FEE7704768
:1002E0007047704770470000F0B481B06A48021F41
:1002F000136801210B43136013689B0708D413682C
:100300009B0705D413689B0702D413689B07F3D59A
:10031000036880241C43046000240094009B7F2B0E
:1003200017D8009B5B1C0093009B7F2B11D8009B70
:100330005B1C0093009B7F2B0BD8009B5B1C0093E6
:10034000009B7F2B05D8009B5B1C0093009B802BA0
:10035000E7D3036890251D4305600094009B7F2B25
:1003600017D8009B5B1C0093009B7F2B11D8009B30
:100370005B1C0093009B7F2B0BD8009B5B1C0093A6
:10038000009B7F2B05D8009B5B1C0093009B802B60
:10039000E7D30323DD4306682E40066015683F4E11
:1003A0002E40166005683E4E2E40066006683D4DA4
:1003B0002E400660866A0F27BE438662C66A40F2F8
:1003C0000317BE43C6620E04C76AB743C762CE07AF
:1003D000C76AB743C762066B8E4306634460324CFC
:1003E000261D1768374317604E04176837420AD135
:1003F0001768374207D11768374204D11CB1241F50
:1004000017683742F1D01468344200D1FEE7274E16
:100410003768022427430525AF4337600568056028
:10042000056805600568056005681E4E3540056075
:100430001D252D0406682E4306600D0616682E4302
:1004400016604D0616682E4208D116682E4205D158
:1004500016682E4202D116682E42F3D002689A43E3
:1004600002600268224302600C2203681340082BDA
:100470000BD003681340082B07D003681340082BE8
:1004800003D003681340082BEFD1C806002101B048
:10049000F0BC00F019BAC04604100240FFFFF2FEA3
:1004A0000C00FF08FFFFC277FCFF000000200240A5
:1004B00010B5FFF79EFE014610484068FFF71EFE8C
:1004C000FFF79EFE0E4948600020886001220A6006
:1004D0000C4B0C681C40012C0BD10C681C40012CEF
:1004E00007D10C681C40012C03D10C681C40012C66
:1004F000EFD00B6893430B60886010BD08000020AC
:1005000010E000E00100010081617047F0B581B0AA
:1005100001261E400324E5430468002E00D088E035
:10052000C768002E00D08AE00090980700D58CE0C4
:1005300025463E46580700D492E03020C04306408E
:100540001701374305400C012C43180700D48CE0F9
:10055000C020C043074096013E4304408D0125431F
:10056000D80600D486E060480640170237430540AD
:100570000C022C43980600D481E05C4807409602A8
:100580003E4304408D02254358067CD5584806401A
:100590001703374305400C032C43180677D55548FD
:1005A000074096033E4304408D032543D80572D58A
:1005B000514806401704374305400C042C43980566
:1005C0006DD54E48074096043E4304408D042543B4
:1005D000580568D54A4806401705374305400C05BD
:1005E0002C43180563D54748074096053E43044011
:1005F0008D052543D8045ED543480640170637438A
:1006000005400C062C43980459D5404D2F409006C8
:1006100038432C408E0626435C0454D53C4D28407C
:10062000140704432E400D0735431804009B4FD494
:1006300055E02C400C43C768002E00D174E72F40D2
:1006400017430090980700D472E70C20C04307407E
:1006500096003E4304408D002543580700D56CE7C3
:100660002C463746180700D572E725463E46D80681
:1006700000D578E72C463746980600D57DE7254615
:100680003E46580682D42C463746180687D425465F
:100690003E46D8058CD42C463746980591D425463D
:1006A0003E46580596D42C46374618059BD4254619
:1006B0003E46D804A0D42C4637469804A5D42646F6
:1006C00038465C04AAD4354604461804009B06D577
:1006D000104804409207A418054088072D181D6093
:1006E000DC6001B0F0BDC046FFFCFFFFFFF3FFFF81
:1006F000FFCFFFFFFF3FFFFFFFFFFCFFFFFFF3FF09
:10070000FFFFCFFFFFFF3FFFFFFFFFFCFFFFFFF3F8
:10071000FFFFFFCFFFFFFF3FB0B5012902D14168C6
:10072000194301E041689943416084680321DD0772
:1007300001D08C4314439D072DD50C25AC43950067
:1007400025435C072AD42C461D072DD42546DC06FC
:1007500030D42C469D0634D425465C0638D42C462D
:100760001D063CD42546DC0540D42C469D0543D4CB
:1007700025465C0546D42C461D0549D42546DC0497
:100780004CD42C469D044FD425465C0452D42C46B0
:100790001B0455D458E025465C07D4D53024A54326
:1007A00014012C431D07D1D5C025AC439501254329
:1007B000DC06CED540F20034A54314022C439D063E
:1007C000CAD540F60045AC43950225435C06C6D524
:1007D00043F20004A54314032C431D06C2D54CF27A
:1007E0000005AC4395032543DC05BED50C04A543A9
:1007F00014042C439D05BBD58D04AC4395042543BF
:100800005C05B8D50C05A54314052C431D05B5D5CD
:100810008D05AC4395052543DC04B2D50C06A543F4
:1008200014062C439D04AFD58D06AC439506254395
:100830005C04ACD50C07A54314072C431B0403D55B
:1008400089078C43910764188460B0BD00F062F89A
:10085000194800F045F8194D012400262846214684
:10086000324642F20003FFF751FE0322284631468A
:1008700042F20003FFF750FF284642F20001FFF763
:1008800043FE40F20020431C0D4D284621463246CF
:10089000FFF73CFE0B4E3046FFF70AFE2846214686
:1008A000FFF732FE3046FFF703FE284640F20021F4
:1008B000FFF72AFEEFE7C0461305000000080048D6
:1008C0000004004888130000034A0A40024303481A
:1008D0000260BFF34F8F704780FFFF1F08ED00E0FD
:1008E0001F21014001228A408009024943581343D5
:1008F0004350704700100240001F414241418800B0
:1009000003490A6804239A43101808607047C046D8
:1009100010E000E010B50420C043FFF7EDFF0748EA
:100920000068FFF766FC0649FFF725FC054C2060D0
:1009300020680549FFF7E2FB606010BD0000002061
:100940000024F44A0800002000007A4402E008C8AD
:10095000121F08C1002AFAD170477047002001E039
:1009600001C1121F002AFBD1704700009009000846
:1009700000000020080000004C0900089809000849
:1009800008000020080400005C09000800000000C6
:0809900000A24A04000000006F
:04000005080000CD22
:00000001FF
