:03000000020016E5
:0C001600787FE4F6D8FD75812202005DC1
:0A0006000818FEFDFBF7EFDFBF7FD7
:10013700900000AF82AE83E4FCFD7BD07A84F9F8AF
:09014700D31201514003A380EA28
:01015000228C
:030003000200A256
:0D00A200C0E0C0F0C083C082C0D075D0089F
:1000AF00752100C3E521940874809480500F741853
:1000BF002521F8E6F580120137052180E67580FFCE
:0B00CF00D0D0D082D083D0F0D0E0323F
:030013000200DA0E
:0D00DA00C0E0C0F0C083C082C0D075D0105F
:1000E700752200C3E522940874809480500F741819
:1000F7002522F8E6F5A0120137052280E675A0FF54
:0B010700D0D0D082D083D0F0D0E03206
:1001120075A885758805D2BAE4F520C3E520940850
:100122007480948050F274182520F8E6F59012013C
:0501320037052080E606
:10002200020112E493A3F8E493A34003F68001F2E1
:1000320008DFF48029E493A3F85407240CC8C333DF
:10004200C4540F4420C8834004F456800146F6DFAE
:10005200E4800B0102040810204080900006E47E38
:10006200019360BCA3FF543F30E509541FFEE493A3
:10007200A360010ECF54C025E060A840B8E493A36A
:10008200FAE493A3F8E493A3C8C582C8CAC583CA95
:10009200F0A3C8C582C8CAC583CADFE9DEE780BE4D
:0100100000EF
:10015100EB9FF5F0EA9E42F0E99D42F0EC6480C825
:0601610064809845F022C5
:00000001FF
