:020000040800F2
:1000000010040020E10000080703000805030008B1
:1000100000000000000000000000000000000000E0
:100020000000000000000000000000000B030008BA
:100030000000000000000000090300080D03000894
:10004000F3000008F3000008F3000008F3000008C4
:10005000F3000008A9020008F3000008F3000008FC
:1000600000000000F3000008F3000008F30000089F
:10007000F3000008F3000008F3000008000000008F
:10008000F3000008F300000800000000F30000087F
:10009000F3000008F3000008F3000008F300000874
:1000A000F3000008F3000008F3000008F300000864
:1000B000F300000800000000000000000000000045
:1000C000F300000800000000F30000080348854624
:1000D00000F0D8F800480047890900081004002003
:1000E0000448804704480047FEE7FEE7FEE7FEE7D6
:1000F000FEE7FEE711030008CD000008024670B5D8
:100100004A40D30FDB0740002DD04A002AD0010E11
:10011000140E000212020919400A520A8418E5015D
:1001200004465443000A120A2E045043A4194219EB
:10013000200CC543AA18120C0125AD03521C5219FC
:1001400012047F39240400D0521C104301D4400013
:10015000491EC2B20C06C0092018401C4008802A63
:1001600002D003E0002070BD40084000002900DA02
:100170000020184370BD70B502464A40D50F4000BC
:100180004A00ED0740085208002814D0002A12D077
:10019000C40DD30D41020120C0055202490A520A82
:1001A000E41A091812187D34914201D3641C00E04E
:1001B0004900002C01DA002070BD0023914201D3D8
:1001C000891A0343400849000028F7D100290AD0C2
:1001D000914202D10121C90705E0914201D20121DA
:1001E00001E00121C943E005C018401900F008F8FA
:1001F00070BD10B500229623114600F009F810BD1D
:10020000002904DA401C490001D140084000704731
:1002100070B40024050C05D11024000402D100297B
:1002200021D01124050E01D100020834050F01D19F
:100230000001241D850F01D18000A41C002801DBD2
:100240004000641C002908D020252E1B0D46F540D7
:10025000A14000D001212943084301061B1B000ACD
:10026000DB1D02D5002070BC7047DB051818801814
:100270000029F8DA401C4900F5D170BC4008400064
:1002800070470000064C0125064E05E0E36807CCE8
:100290002B430C3C98471034B442F7D3FFF71AFFB6
:1002A000340F0008540F000880B5022000F00CF94C
:1002B00001280FD10920C006022100F0CDF9012844
:1002C00009D10CA000F026FE0D4842F2000100F01A
:1002D000C1F903E080BD03A000F01CFE022000F085
:1002E000EFF880BD6B65792072656C65617365217F
:1002F0000D0000006B6579207072657373210D002D
:1003000000080048FEE770477047704770470000DC
:10031000F0B583B003200190C3434548C258012182
:100320000A43C250C25802242242FBD002688025F0
:100330001543056000250295029A7F2A05D8029A86
:10034000521C0292029A802AF9D302689026164320
:1003500006600295029A7F2A05D8029A521C0292E0
:10036000029A802AF9D302681A400260C258314EBC
:100370001640C6500268304E1640066002682F4E86
:10038000009632400260826A0F26B2438262C26ADD
:1003900040F20316B243C2620A04C66A9643C662BA
:1003A000CA07C66A9643C662026B8A430263456007
:1003B000C258234EB51C1543C5504D04C2582A409F
:1003C000771E16B1002A3E46F8D0C2582A422ED0D7
:1003D0001C4A15680726B54325431560026802606C
:1003E00002680260026802600268009D2A400260A2
:1003F0001D221204056815430560C2580D061543F9
:10040000C550C2584D062A42FBD00268019B9A4350
:10041000026002682243026002680C231340082B2A
:10042000FAD1C806002100F025FB03B0F0BDFEE7BD
:1004300004100240FFFFF2FE0C00FF08FFFFC2772E
:10044000FEFF000000200240B0B50723DC43174B3D
:100450001D5985431D510324E4431D5985431D51F6
:100460001C6884431C605C6884435C601D46083DD6
:10047000C44311B1012903D11D1F2968014329601B
:10048000022A08D0012A09D072B9196801431960FB
:100490005968214007E01968014301E019682140CB
:1004A0001960596801435960B0BDC0460804014055
:1004B00002490A6802430A607047C04600040140CE
:1004C000054908607047C04603490968014001209A
:1004D00001B908467047C04614040140B0B504464F
:1004E000E1B2064D284600F03FFC0549284600F0E1
:1004F0005EFC0028F9D02046B0BDC046003801405F
:1005000007070000F0B585B0036A0F251C46AC4311
:100510000C430126324200D02346446A464F02264D
:10052000324201D11E4603E0F026B3430E011E43C2
:100530005307424B049301D4334602E03E400B0282
:10054000334316073E4E039601D41E4603E0049E35
:1005500033400E031E43D3063A4B029301D4334675
:1005600003E0039B1E400B04334300979606364E70
:10057000019601D41F4603E0029E33400F051F433E
:100580005306324B06D43E46170609D51E400F07C8
:10059000374306E0019E37400E063E431706F5D46A
:1005A00037462646AE430E4340F200152A4200D09D
:1005B000344640F200252A4224D12546540527D549
:1005C000009C25400C022C43150524D5049D2C408D
:1005D0000D032543D40421D5039C25400C042C4352
:1005E00095041ED5029D2C400D05254354041BD5B2
:1005F000019C25400C062C43120418D51C40090709
:10060000214315E0F025AC430D0125435405D7D413
:100610002C461505DAD42546D404DDD42C469504A1
:10062000E0D425465404E3D42C461204E6D42146F3
:100630000762416205B0F0BDFFF0FFFFFF0FFFFF53
:10064000FFFFF0FFFFFF0FFFFFFFFFF0FFFFFF0FB8
:1006500081627047C162704702690A40012002B995
:1006600010467047F0B50468C568DE0705D003265C
:10067000F6433540154334400C439E0700D584E0D3
:1006800026462F465C0700D48AE03024E443274006
:1006900015013D4326400C0134431E0700D484E07D
:1006A000C026F643354097012F4334408E01264340
:1006B000DC067FD5584C274015023D4326400C02EE
:1006C00034439E067AD5554E354097022F43344029
:1006D0008E0226435C0675D5514C274015033D43D9
:1006E00026400C0334431E0670D54E4E354097030A
:1006F0002F4334408E032643DC056BD54A4C2740FC
:1007000015043D4326400C0434439E0566D5474EF0
:10071000354097042F4334408E0426435C0561D551
:10072000434C274015053D4326400C0534431E0528
:100730005CD5404E354097052F4334408E05264307
:10074000DC0457D53C4C274015063D4326400C069B
:1007500034439E0452D5394E354097062F433440DA
:100760008E0626435C044DD5354C274015073D4386
:1007700026400C0734431B0448D5324B1D409207DA
:100780002A431C408907214342E00C26F6433540AA
:1007900097002F4334408E0026435C0700D574E752
:1007A00034463D461E0700D57AE726462F46DC062E
:1007B00000D57FE734463D469E0684D426462F4624
:1007C0005C0689D434463D461E068ED426462F4606
:1007D000DC0593D434463D469E0598D426462F46E4
:1007E0005C059DD434463D461E05A2D426462F46C0
:1007F000DC04A7D434463D469E04ACD426462F469E
:100800005C04B1D434463D461B04B6D421462A4686
:100810000160C260F0BDC046FFFCFFFFFFF3FFFFB9
:10082000FFCFFFFFFF3FFFFFFFFFFCFFFFFFF3FFD7
:10083000FFFFCFFFFFFF3FFFFFFFFFFCFFFFFFF3C7
:10084000FFFFFFCFFFFFFF3F70B5012902D14168D5
:10085000194301E0416899434160846803212546BA
:100860008D4315430126334200D02C4602252B42EE
:100870005AD125465C075DD53024A54314012C438D
:100880001D075AD5C025AC4395012543DC0657D535
:1008900040F20034A54314022C439D0653D540F684
:1008A0000045AC43950225435C064FD543F2000456
:1008B000A54314032C431D064BD54CF20005AC4355
:1008C00095032543DC0547D50C04A54314042C43AC
:1008D0009D0544D58D04AC43950425435C0541D565
:1008E0000C05A54314052C431D053ED58D05AC43D1
:1008F00095052543DC043BD50C06A54314062C4383
:100900009D0438D58D06AC43950625435C0435D54A
:100910000C07A54314072C431B0432D589078C43CD
:1009200091072143816070BD0C25AC4395002543A0
:100930005C07A1D42C461D07A4D42546DC06A7D409
:100940002C469D06ABD425465C06AFD42C461D062E
:10095000B3D42546DC05B7D42C469D05BAD425462C
:100960005C05BDD42C461D05C0D42546DC04C3D48B
:100970002C469D04C6D425465C04C9D42C461B04D1
:10098000CCD42146816070BD70B500F0A5F900F0AF
:100990001BFA1D4C204600F041F92046EF3000F0D4
:1009A0003DF9A01C00F03AF9184E0125002430460C
:1009B0002946224642F20003FFF754FE0322304646
:1009C000214642F20003FFF73FFF304642F20001AA
:1009D000FFF73EFE0920C006022621463246334676
:1009E000FFF740FE0520294600F012F82046294670
:1009F00000F034F9304621463246FFF725FD3046F7
:100A0000FFF756FDFEE7C04611050000000800484C
:100A1000B0B540B2C200182313408901C9B2994051
:100A2000FF229A40D243002811DB032304469C4353
:100A30000D4BE55815400D43E550C1080B4A0A40DF
:100A40001F2101400120884009495050B0BD0F23AB
:100A50001840083803239843024BC45814400C43F1
:100A6000C450B0BD1CED00E000E400E0FCFFFF1F3F
:100A700000E100E0034A0A40024303480260BFF37A
:100A80004F8F704780FFFF1F08ED00E0F0B584B086
:100A90000646574C206880080321084001231A04A9
:100AA0000392544F02283D461BD12068800C0F2230
:100AB00010402568DB061D4205D1831C10250F2838
:100AC00003D01D4601E0113005462068039B184203
:100AD00005D0A06A1040401CB7FBF0F000E046488B
:100AE00045430097206800090F22024043A0805C24
:100AF00002952F46C74020682268D20A07231A4071
:100B000042A5AA5C3D46D540000A18400022052EA9
:100B10006AD80191B20001A151188F4600F00AB8BD
:100B200000F00AB800F00AB800F00DB800F00DB8F7
:100B300000F018B8029A57E03A4655E033A1085C35
:100B4000C7403A4650E02A464EE0E06A40F20011C3
:100B5000084221D1E16A2F4A2F48039B194243D012
:100B6000024641E0E06A019908422A463CD0E06A28
:100B700008400128029A37D0E06A084048F2000293
:100B8000022831D00846E16A01400022032900987A
:100B900000D0104604B0F0BD2068810B01980140E0
:100BA000E06AC00F012908D002290BD003290DD11A
:100BB00088B10920B7FBF0F216E070B10520B7FB51
:100BC000F0F211E058B1B7FBF3F20DE058B1019823
:100BD000B7FBF0F208E0EA0806E0AA0804E0062005
:100BE000B5FBF0F200E06A08104604B0F0BDC04664
:100BF0000410024000127A0000093D0000000000CD
:100C000000000000010203040607080900000000BC
:100C100001020304809FD500003FAB011F2101406A
:100C200001228A4080090C494358134343507047BE
:100C30001F21014001228A408009074943589343FC
:100C4000435070471F21014001228A408009024918
:100C5000435813434350704700100240B0B58A0018
:100C60000C23134098400F229A40D2438B0812491C
:100C7000032B20D89C0001A56419A74600F006B8F4
:100C800000F008B800F00BB800F00EB80B68134085
:100C90000B600DE04B6813404B60091D08E08B684A
:100CA00013408B60083103E0CB681340CB600C31FC
:100CB0000A6802430A60B0BD0800014010B505494A
:100CC0000A68042413462343A243042800D0134691
:100CD0000B6010BD10E000E010B50420C043FFF72A
:100CE000EDFF07480068FFF784FA0649FFF743FA6B
:100CF000054C206020680549FFF700FA606010BDD0
:100D0000040000200024F44A0800002000007A4477
:100D100070B50D46044602210020124E1E4A944230
:100D200003D058498C4203D10521C8B2FFF7AEFE6B
:100D30006908226848F200031A4207D14018B0FB44
:100D4000F5F00F3606403046E06070BD40004018B8
:100D5000B0FBF5F006404108072008403043E06052
:100D600070BDC046F0FF0000014A0A408262704731
:100D7000FF01000010B50849884204D0414988426B
:100D800009D1074C00E0054C2046FFF75BFF2046E9
:100D9000FFF74EFF10BD10BD0044004011040000DD
:100DA0000E030000016801220A430260704710B57B
:100DB00002461F230B40012004469C4089098958A4
:100DC000214001B9084610BD70B52D4C2046FD30BC
:100DD000FFF724FF2046FFF721FF2046FFF71EFF05
:100DE0000920C40601252046294640F20022FFF7CB
:100DF00089FB2046294640F20042FFF783FB02268A
:100E0000204631462A4640F20023FFF72BFC2046BD
:100E100031462A4640F20043FFF724FC0025032612
:100E200020462946324640F20023FFF70DFD2046BA
:100E30002946324640F20043FFF706FD114C20469A
:100E4000FFF798FFE12041022046FFF761FF2046AF
:100E5000294600F019F82046294600F03FF82046C0
:100E6000294600F026F80421204600F01AF808214F
:100E7000204600F02BF82046FFF794FF70BDC046D7
:100E80001105000000380140026801239A43026006
:100E9000026840F200639A43026002680A430260FB
:100EA0007047026804239A43026002680A430260A2
:100EB0007047026801239A430260426843F20003CC
:100EC0009A43426042680A434260704702680823BE
:100ED0009A43026002680A43026070470268012375
:100EE0009A430260026841F200039A43026002687A
:100EF0000A430260704702E008C8121F08C1002AB6
:100F0000FAD170477047002001E001C1121F002A8A
:100F1000FBD1704710B5044601E0FFF7DFFA2078F7
:100F2000641C03490028F8D10A20FFF7D7FA10BD46
:100F300000000020580F00080000002008000000FA
:100F4000F60E0008600F00080800002008040000EA
:100F5000060F0008000000000000000000A24A0484
:04000005080000CD22
:00000001FF
